:020000040800F2
:10000000988F00209D010008DB060008DD02000833
:10001000D9060008E5010008190F000800000000DB
:100020000000000000000000000000006F0B00084E
:10003000E701000800000000550700080D0C00084B
:10004000B7010008B7010008B7010008B7010008B0
:10005000B7010008B7010008B7010008B7010008A0
:10006000B7010008B7010008B7010008B701000890
:10007000B7010008B7010008B7010008B701000880
:10008000B7010008B7010008B7010008B701000870
:10009000B7010008B7010008B7010008B701000860
:1000A000B7010008B7010008B7010008B701000850
:1000B000B7010008B7010008B7010008B701000840
:1000C000B7010008B7010008B7010008B701000830
:1000D000B7010008B7010008B7010008810C00084B
:1000E000B7010008B7010008B7010008B701000810
:1000F000B7010008B7010008B7010008B701000800
:10010000000000000000000000000000B70100082F
:10011000B7010008B7010008B7010008B7010008DF
:10012000B7010008B7010008B7010008B7010008CF
:10013000B7010008B701000800000000000000003F
:10014000B7010008B7010008B7010008000000006F
:10015000000000000000000000000000000000009F
:100160000000000000000000B7010008B70100080F
:10017000B7010008000000000000000000000000BF
:1001800000000000B7010008DFF80CD000F018F8FC
:100190000048004731100008988F0020064880472B
:1001A00006480047FEE7FEE7FEE7FEE7FEE7FEE75C
:1001B000FEE7FEE7FEE7FEE7110C000889010008F4
:1001C000064C074D06E0E06840F0010394E80700A4
:1001D00098471034AC42F6D3FFF7DAFFB8100008A6
:1001E000D8100008FEE7704742F2283148434FF02C
:1001F000E021486100238B61012008610869C20782
:1002000001D0C003FAD50B618B61704770B505460C
:100210006C6803E02046646800F0E2FE002CF9D12F
:1002200000206860288070BD70B505466C6803E0EA
:100230002046646800F0D4FE002CF9D100206860EC
:10024000287070BDF0B500220127032607FA02F3DB
:100250000C681C409C422BD10D79012D01D0022D40
:1002600013D18468550006FA05FC24EA0C04846066
:100270004C79AC4085682C43846084889C4384809E
:1002800084888B7993401C4384800568530006FA68
:1002900003F4A54305600D79D0F800C09D4045EA00
:1002A0000C050560C568A543CC799C402C43C4600F
:1002B000521C102ACAD3F0BD10B54B07DB0E9A4072
:1002C000C90800EB8100016A0F249C40A143016230
:1002D000016A1143016210BD81617047FEE770B58C
:1002E00006464FF496350021084600F072F92C209E
:1002F00000F0A2F9002403E0304600F0B3F9641CDA
:10030000AC42F9D370BD7CB50121480400F064FA19
:100310000121880400F060FA0121C80400F05CFAB1
:100320000121480500F058FA01248DF8044003200B
:100330008DF80500102000904FF090456946284642
:10034000FFF780FF0821009169462846FFF77AFFF2
:100350004020009069462846FFF774FF00946946E4
:100360002846FFF76FFF2020009069462846FFF7D8
:1003700069FF0224009469462846FFF763FF0221C3
:100380002846FFF7A9FF0420009069462846FFF79A
:1003900059FF0120FFF728FF2C850A20FFF724FFD3
:1003A000AC617820FFF720FFCF2000F045F9002056
:1003B00000F04DF9C92000F04AF9302000F047F96B
:1003C000ED2000F039F9642000F041F9032000F03D
:1003D0003EF9122000F03BF9812000F038F9E820C6
:1003E00000F02AF9852000F032F9102000F02FF9F2
:1003F0007A2000F02CF9CB2000F01EF9392000F013
:1004000026F92C2000F023F9002000F020F93420F8
:1004100000F01DF9032000F01AF9F72000F00CF9A4
:10042000202000F014F9EA2000F006F9002000F086
:100430000EF9002000F00BF9C02000F0FDF81B20A1
:1004400000F005F9C12000F0F7F8002000F0FFF8F7
:10045000C52000F0F1F8302000F0F9F8302000F06D
:10046000F6F8C72000F0E8F8B72000F0F0F83620E2
:1004700000F0E2F8082000F0EAF83A2000F0DCF89A
:10048000552000F0E4F8B12000F0D6F8002000F08C
:10049000DEF81A2000F0DBF8B62000F0CDF80A20D4
:1004A00000F0D5F8A22000F0D2F8F22000F0C4F855
:1004B000002000F0CCF8262000F0BEF8012000F06B
:1004C000C6F8E02000F0B8F80F2000F0C0F82820AF
:1004D00000F0BDF8292000F0BAF80D2000F0B7F8C0
:1004E000112000F0B4F8092000F0B1F8542000F019
:1004F000AEF8A82000F0ABF8462000F0A8F80F20D6
:1005000000F0A5F81A2000F0A2F80E2000F09FF8E5
:10051000142000F09CF80C2000F099F8002000F066
:1005200096F8E12000F088F8002000F090F81B20F9
:1005300000F08DF81E2000F08AF8072000F087F800
:10054000132000F084F8072000F081F82A2000F042
:100550007EF8472000F07BF8392000F078F803207F
:1005600000F075F8092000F072F80C2000F06FF828
:10057000352000F06CF83D2000F069F80F2000F005
:1005800066F82B2000F058F8002000F060F80020FA
:1005900000F05DF8012000F05AF83F2000F057F815
:1005A0002A2000F049F8002000F051F8002000F067
:1005B0004EF8002000F04BF8EF2000F048F8112032
:1005C00000F03AF87820FFF70FFE292000F034F809
:1005D0007CBD30B504460D462A2000F02DF8200AD7
:1005E00000F035F8E0B200F032F82B2000F024F8EB
:1005F000280A00F02CF8E8B2BDE8304000F027B837
:1006000070B50546E02000F017F80024FF263046BC
:100610002E5500F01CF8641CE4B20F2CF7D3E12037
:1006200000F00AF8002430462E5500F010F8641C43
:10063000E4B20F2CF7D370BD30B54FF090440125D4
:1006400025850421218500F07FFAA56130BD30B5F4
:100650004FF09044012525850421A16100F074FA32
:10066000A56130BD70B505464FF090440126268542
:100670000420A061280A00F067FAE8B200F064FAEA
:10068000A66170BDF0B505460F462C46E020FFF789
:10069000D3FF002606E02078FFF7D9FF2078B85571
:1006A0006468761C002CF6D1E120FFF7C5FF06E058
:1006B0002878FFF7CCFF287838556D68641C002D2A
:1006C000F6D1F0BD10B5044603E064682088FFF75A
:1006D000C9FF002CF9D110BDFEE7704770B50F239C
:1006E000C27801260178002A1ED0144A126802F44A
:1006F000E062C2F5E062120AC2F10404D340457818
:10070000A54082781A402A43120101F1E02181F8C4
:100710000024007800F01F018E404009800000F1A5
:10072000E020C0F8006170BD01F01F00864048095C
:10073000800000F1E020C0F8806170BD0CED00E0A9
:100740000249084302490860704700000000FA05AA
:100750000CED00E07047000010B50446082000F0E2
:1007600075FC0480002141600A4C21680A8832B17E
:10077000002231B100231A4306D0206010BD0122AF
:10078000F7E70123F7E711464A68002AFBD14860E2
:1007900010BD00004800002010B50446082000F0FD
:1007A00055FC0470002141600A4C61680A7832B13E
:1007B000002231B100231A4306D0606010BD01222F
:1007C000F7E70123F7E711464A68002AFBD14860A2
:1007D00010BD000048000020054A002903D05169DF
:1007E0000143516170475169814351617047000075
:1007F00000100240054A002903D0D1690143D161AC
:100800007047D1698143D1617047000000100240F8
:100810002DE9F0470021DFF82083D8F8042002F00A
:100820000C02C64E002A3AD0042A3AD0082A3AD0FE
:100830000660D8F8042002F0F0021209C04CA55C52
:10084000026822FA05F34360D8F8047007F4E06701
:100850003F0A14F807C023FA0CF78760D8F804C0E1
:100860000CF4605C4FEADC2C14F80C40E340C360ED
:10087000D8F82CC04FEA1C1CDFF8C4A20CF00F09FA
:100880000AF1100A3AF819905FEACC6C24D5B9F154
:10089000000F21D0B1FBF9FCC0F810C01DE00660CC
:1008A000C7E70660C5E7D8F8041001F47011D8F85E
:1008B000042002F48032022303EB91414AB1D8F8BC
:1008C0002C2002F00F02521CB6FBF2F251430160E1
:1008D000AFE79C4A5143FAE70261D8F82CC04FEACF
:1008E0005C2C0CF00F093AF819905FEACC6C07D534
:1008F000B9F1000F04D0B1FBF9FCC0F814C000E05E
:100900004261D8F830C05FEACC6C01D4866100E067
:100910008261D8F830C05FEA8C6C01D4C66100E017
:10092000C261D8F830C05FEA4C6C01D4066200E0C6
:100930000262D8F830C05FEACC5C08D58A4206D1A2
:10094000AC4204D14FEA410CC0F824C000E043623D
:10095000D8F830C05FEACC4C08D58A4206D1AC4208
:1009600004D14FEA410CC0F828C000E08362D8F8F7
:1009700030C05FEA8C5C08D58A4206D1AC4204D113
:100980004FEA410CC0F82CC000E0C362D8F830C078
:100990005FEA4C5C08D58A4206D1AC4204D14FEAEA
:1009A000410CC0F84CC000E0C364D8F830C05FEA26
:1009B0000C5C08D58A4206D1AC4204D14FEA410C06
:1009C000C0F850C000E00365D8F830C05FEA8C4C36
:1009D00008D58A4206D1AC4204D14FEA410CC0F896
:1009E00054C000E00365D8F830C05FEA0C4C06D56F
:1009F0008A4204D1AC4202D14900816500E083659E
:100A0000D8F830108C074FF4004111D0D8F83030AE
:100A100003F00303012B0DD0D8F8303003F00303AB
:100A2000022B09D0D8F83030DB439B0706D006E014
:100A3000836304E0826302E0816300E08663D8F8A8
:100A4000303013F4403F12D0D8F83030C3F30143B4
:100A5000012B0ED0D8F83030C3F30143022B0AD05B
:100A6000D8F83030C3F30143032B06D006E0C76348
:100A700004E0C26302E0C16300E0C663D8F830302E
:100A800013F4402F12D0D8F83030C3F38143012B38
:100A90000ED0D8F83030C3F38143022B0AD0D8F8F7
:100AA0003030C3F38143032B06D006E0076404E033
:100AB000026402E0016400E00664D8F8303013F408
:100AC000401F12D0D8F83030C3F30153012B0ED0A1
:100AD000D8F83030C3F30153022B0AD0D8F83030A5
:100AE000C3F30153032B06D006E0476404E04264DD
:100AF00002E0416400E04664D8F8303013F4400F5F
:100B000014D0D8F83030C3F38153012B10D0D8F86B
:100B10003020C2F38152022A0CD0D8F83010C1F331
:100B20008151032900D18664BDE8F0878764FBE723
:100B30008264F9E78164F7E70010024000127A004E
:100B40000000002000093D0030B5002108241023DA
:100B50004FF090421385050601D5946100E014859D
:100B600093614006000E491C0829F3DB30BD704735
:100B70000CB50022019200922248016841F48031B4
:100B800001604FF4A043016801F400310091019924
:100B9000491C0191009911B901999942F3D1016859
:100BA000890302D50121009100E0009200990129FA
:100BB00026D1154A122111604168416041684160A7
:100BC000416841F480614160416821F47C114160D9
:100BD000416841F4E8114160016841F080710160B1
:100BE00001688901FCD5416821F003014160416839
:100BF00041F0020141604168C1F381010229FAD14B
:100C00000CBD0000001002400020024070470000B0
:100C100010B51648016841F470010160144801687C
:100C200041F0010101604168124A114041600168D0
:100C3000114A11400160016821F48021016041687E
:100C400021F4FE014160C16A21F00F01C162016B14
:100C50000A4A1140016300218160FFF789FF0349BF
:100C60004FF000608039086010BD000088ED00E0A2
:100C7000001002400CC07FF8FFFFF6FECCFC00FF26
:100C80002DE9F041484E4749304600F0A7F80028CA
:100C90006FD0304600F038F9C5B2444A28091070C8
:100CA00005F00F015170102867D2DFE800F06608E8
:100CB0000E151C23272F333B484E555E636C9088DE
:100CC00020F00F000843908057E0908820F0F0005B
:100CD00040EA0110908050E0908820F4706040EA73
:100CE0000120908049E0908820F4704040EA013073
:100CF000908042E09088FFF7F2FA3EE0002108463B
:100D0000FFF767FC2C20FFF797FC36E09088FFF791
:100D100023FD32E0264C2068FFF7D4FC2068FFF763
:100D200075FA2AE00024234F3046395D00F0F0F8D0
:100D30000120FFF759FA641C0F2CF5DB1DE09078B9
:100D400020F00F000843907017E0907820F0F0003A
:100D500040EA0110907010E0174C16492068FFF728
:100D600091FC2068FFF760FA07E09078FFF714FD28
:100D700003E014E00F48FFF743FC29463046BDE886
:100D8000F04100F0C5B8BFF34F8F0C4801680C4A22
:100D900001F4E06111430160BFF34F8FFEE7BDE84E
:100DA000F0810000050105000048004030000020EF
:100DB00048000020360000204C0000200CED00E030
:100DC0000400FA05002904D0016841F00101016026
:100DD0007047016821F001010160704730B50024BF
:100DE000C1F30723012505FA01F2012B0CD0022BD8
:100DF0000DD083681340090C8D40C06928400BB1A9
:100E000000B10124204630BD03681340F3E7436876
:100E10001340F0E710B5C1F3072401238B40022CE7
:100E200002D0032C02D002E0001D00E008301AB10D
:100E300001681943016010BD01689943016010BD4C
:100E400030B597B004460D46206820F001002060C0
:100E5000606820F44051A86808436060206841F24F
:100E60000C618843EA68696811432A6902431143A7
:100E70002160A06820F4407069690143A160684660
:100E8000FFF7C6FC1C48844201D10E990FE01B48B5
:100E9000844201D10F990AE01948844201D1109986
:100EA00005E01848844201D1119900E012992068A8
:100EB000000408D52A684900B1FBF2F0B1FBF2F357
:100EC00002FB131106E02A68B1FBF2F0B1FBF2F36A
:100ED00002FB13112A68B1EB520F00D3401C2168AA
:100EE000090405D5C0F342014FF6F07210400843E3
:100EF000A08117B030BD0000003801400044004020
:100F000000480040004C0040808CC0F3080070474F
:100F1000C1F3080101857047FEE7000030B589B0D4
:100F20000121C804FFF758FC01218804FFF762FC87
:100F30004FF44060079002208DF8200003208DF8C8
:100F4000210000248DF822401A4D07A92846FFF7FA
:100F500079F907220A212846FFF7AEF907220B216B
:100F60002846FFF7A9F94FF4E130019006940C20D0
:100F700005900494039402940F4C01A92046FFF7B6
:100F80005FFF01212046FFF71DFF01220B4920468C
:100F9000FFF740FF27208DF8000001208DF80300A7
:100FA0008DF801008DF802006846FFF797FB09B045
:100FB00030BD000000080048004800400501050061
:100FC00002E008C8121F08C1002AFAD17047704712
:100FD000002001E001C1121F002AFBD17047000070
:100FE00010B5002821D0114B0022001F196803E022
:100FF000814203D80A4649680029F9D152B11368E1
:10100000841A9C4204D1006818441060104602E023
:10101000506000E0186039B102680B1A934203D1A6
:101020000B681A4402604968416010BD50000020FE
:10103000FFF769F9FFF772FF4FF4A060FFF780FB3D
:1010400020214FF09040FFF747F9FEE7F0B50B3055
:10105000154D20F007010024144A0FE003688B426D
:101060000BD38B4205D95E1A43184768C3E9006762
:1010700000E04368136002C004E0021D106800280D
:10108000ECD12046002802D1286808B10020F0BD2C
:10109000064A07481060074A121A22F00702C0E900
:1010A000002401202860D7E75400002050000020D1
:1010B0005C000020588F0020D8100008000000209D
:1010C00058000000C00F0008301100085800002030
:1010D000408F0000D00F0008000000000102030450
:1010E00001020304060708090100020004000600CB
:1010F00008000A000C0010002000400080000001E1
:1011000000000000000000000000FF0000000F28A9
:10111000290D110954A8460F1A0E140C00000000E6
:1011200000000000000000000000000000000000BF
:040000050800019D51
:00000001FF
