:020000040800F2
:10000000A88F00209D010008150D00083509000883
:10001000130D0008710700085915000800000000C2
:10002000000000000000000000000000AB1100080C
:100030007307000800000000910D00084912000835
:10004000B7010008B7010008B7010008B7010008B0
:10005000B7010008B7010008B7010008B7010008A0
:10006000B7010008B7010008B7010008B701000890
:10007000B7010008B7010008B7010008B701000880
:10008000B7010008B7010008B7010008B701000870
:10009000B7010008B7010008B7010008B701000860
:1000A000B7010008B7010008B7010008B701000850
:1000B000B7010008B7010008B7010008B701000840
:1000C000B7010008B7010008B7010008B701000830
:1000D000B7010008B7010008B7010008BD12000809
:1000E000B7010008B7010008B7010008B701000810
:1000F000B7010008B7010008B7010008B701000800
:10010000000000000000000000000000B70100082F
:10011000B7010008B7010008B7010008B7010008DF
:10012000B7010008B7010008B7010008B7010008CF
:10013000B7010008B701000800000000000000003F
:10014000B7010008B7010008B7010008000000006F
:10015000000000000000000000000000000000009F
:100160000000000000000000B7010008B70100080F
:10017000B7010008000000000000000000000000BF
:1001800000000000B7010008DFF80CD000F06CFAA6
:10019000004800479D240008A88F0020064880479B
:1001A00006480047FEE7FEE7FEE7FEE7FEE7FEE75C
:1001B000FEE7FEE7FEE7FEE74D12000889010008B2
:1001C0002DE9FE4F81EA030404F0004421F00041D0
:1001D00000944FF0000B23F0004350EA01045ED07E
:1001E00052EA03045BD0C3F30A54C1F30A552C440A
:1001F000A4F2F3340194A0FB0254C1F3130141F4BF
:100200008011C3F3130343F4801301FB024400FB8A
:10021000034E840A970A44EA815447EA8357A4FBB1
:10022000076802958D0A05FB07854FEA932C04FBAE
:100230000C542705029D4FEA065847EA1637B5EBDE
:1002400008056EEB070C870E920E47EA811742EA0B
:100250008312A7FB0201B6EB0B0164EB00042B0D2C
:1002600043EA0C335E1844EB1C50DA465146E7FB78
:100270000201C5F313044FEA0B3343EA14534FEA68
:100280000432019C43EA0603A4F10C040294009C8E
:10029000CDE900B400F055F803B0BDE8F08F0020C0
:1002A0000146F9E70EB5C10F80EAE0700844CA07BD
:1002B000002140F233438DE80E000A460B4600F061
:1002C00040F803B000BD70B5C1F30A5201F000451B
:1002D0000024C1F3130140F2FF3341F480119A422C
:1002E00001DA002070BD40F233439A42A2F2334259
:1002F00003DC524200F006F800E090402C43F1D0BD
:10030000404270BD202A04DB203A21FA02F000218D
:10031000704721FA02F3D040C2F120029140084315
:100320001946704710B5141E73F1000408DA401C1A
:1003300041F1000192185B411A4301D120F0010004
:1003400010BD2DE9F04D92469B4611B1B1FA81F2F4
:1003500002E0B0FA80F22032904600F097F90446AD
:100360000F4640EA0A0041EA0B0153465A46084349
:1003700013D0114653EA010019D0C8F1400250468B
:10038000FFF7C0FF05460E4650465946424600F06C
:100390007DF9084305D0012004E020463946BDE838
:1003A000F08D0020054346EAE0762C4337430A9857
:1003B0006305E40AA0EB08000022FD0A44EA475462
:1003C0000A3002D500200146E9E70105101969410C
:1003D000DDE9084500196941BDE8F04DA2E72DE9C6
:1003E000FE4F804681EA0300C00F0C46009021F0CA
:1003F000004123F00045B8EB0200A94105D2404678
:10040000214690461C460B46024623F0004010430E
:1004100047D0270DC7F30A00C3F30A510290401AD0
:10042000019040286BDAC3F3130040F4801B00985E
:10043000924620B10023D2EB030A63EB0B0B019829
:100440005946C0F14002504600F020F906460D46DC
:1004500050465946019A00F028F910EB0800614116
:10046000002487EA115284EAE7731A4340D0009AC5
:1004700062B3019A012A4FEA075215DC001B61EBB7
:1004800002014FF0004202EA0752CDE90042001C8F
:1004900041F5801132462B46FFF753FF03B0BDE80C
:1004A000F08F40462146F9E7001B61EB0201001C7A
:1004B00041F5801300185B412018A2F5001747EBA7
:1004C000030140EAD570B6196D4111E06D084FEA9D
:1004D000360645EAC0754FEA0752001B61EB020180
:1004E000001C41F5801149084FEA300000195141C4
:1004F00032462B4603B0BDE8F04FFFF713BF00981C
:10050000012240000023D0EB020263EBE07300986D
:1005100021464FEAE074B8EB000061EB0401E9E723
:1005200083F000435BE781F0004158E72DE9F04D8F
:1005300081EA030404F0004B21F0004514464FF01B
:10054000000A23F0004150EA050220D054EA0102DB
:100550001DD0C5F30A570246C5F31303C1F31300B8
:10056000C1F30A5640F4801543F48013A7EB060844
:10057000101BD64608F2FD3873EB050002D308F1D4
:10058000010801E092185B41B8F1000F03DA002086
:100590000146BDE8F08D00204FF4801106468446E8
:1005A0000EE0171B73EB050705D3121B63EB050366
:1005B00006434CEA010C49084FEA300092185B41AF
:1005C00050EA0107EDD152EA030012D082EA04009A
:1005D00083EA0501084305D0101BAB4106D2012276
:1005E000002306E000224FF0004302E06FF001021A
:1005F00053101AEB06004CEB085110EB0A0041EBCC
:100600000B01BDE8F04DFFF78DBE70B521F0004342
:1006100003430CD0C1F30A550024D5EB040564EB69
:100620000403D617AD1AB34102DB0020014670BDAA
:10063000201841EB025170BD30B5041E71F1000469
:1006400004DB4FF00044404264EB0101141E73F1DF
:10065000000405DB1C464FF00043524263EB0403E9
:10066000994208BF904230BD064C074D06E0E06855
:1006700040F0010394E8070098471034AC42F6D3E9
:10068000FFF786FD2826000848260008202A04DBFC
:10069000203A00FA02F1002070479140C2F1200395
:1006A00020FA03F3194390407047202A06DBCB174A
:1006B000203A41FA02F043EAE07306E041FA02F31D
:1006C000D040C2F1200291400843194670472DE9FD
:1006D000F04D00231A461B1A8A4103DB0020014615
:1006E000BDE8F08DC1F30A52C1F3130141F4801546
:1006F0004FF0000BD10702D100186D41521E0027A8
:10070000044640F2FF11384601EB620A3E4680463D
:10071000024600204FF48011FFF7F4FDC219714129
:10072000BB1846EB0100B4EB030C75EB000C04D3D3
:10073000E41A65EB000517460E46241908F101007E
:100740006D4180463428E3DDF91946EB0600091BAC
:10075000A84103D24FF0FF32134601E000221346B6
:100760001BEB070046EB0A51BDE8F04DFFF7DABD81
:10077000FEE7704742F2283148434FF0E0214861DC
:1007800000238B61012008610869C20701D0C00302
:10079000FAD50B618B61704770B505466C6803E054
:1007A0002046646801F052FE002CF9D100206860F8
:1007B000288070BD70B505466C6803E0204664680B
:1007C00001F044FE002CF9D100206860287070BD53
:1007D000F0B500220127032607FA02F30C681C403B
:1007E0009C422BD10D79012D01D0022D13D18468AB
:1007F000550006FA05FC24EA0C0484604C79AC40F0
:1008000085682C43846084889C43848084888B79A9
:1008100093401C4384800568530006FA03F4A54303
:1008200005600D79D0F800C09D4045EA0C050560D3
:10083000C568A543CC799C402C43C460521C102A47
:10084000CAD3F0BD10B54B07DB0E9A40C90800EBC8
:100850008100016A0F249C40A1430162016A114397
:10086000016210BD8161704770B52DED048B00F001
:100870001F01C0F34516C40A0846FFF713FD9FED9C
:10088000278B41EC100BB0EE481AF0EE681A00F01E
:10089000CFFE9FED249B51EC100B53EC192BFFF76F
:1008A0008FFCFFF710FD05463046FFF7FBFC41ECDF
:1008B000100BB0EE481AF0EE681A00F0B9FE9FED8A
:1008C0001B1B51EC100B53EC112BFFF779FCFFF7BE
:1008D000FAFC06462046FFF7E5FC41EC100BB0EEB3
:1008E000481AF0EE681A00F0A3FE53EC192B51ECF5
:1008F000100BFFF765FCFFF7E6FC01464FF6E070D2
:10090000284320F4FC6040EA461020F4784040EA96
:10091000C12080B2BDEC048B70BD0000000000005F
:1009200000000040000000000000A03F00000000A8
:100930000000903FFEE770B506464FF49635002163
:10094000084600F072F92C2000F092F9002403E030
:10095000304600F0A3F9641CAC42F9D370BD7CB5FD
:100960000121480400F056FA0121880400F052FAEF
:100970000121C80400F04EFA0121480500F04AFAAE
:1009800001248DF8044003208DF80500102000900C
:100990004FF0904569462846FFF71AFF80210091E5
:1009A00069462846FFF714FF402000906946284614
:1009B000FFF70EFF009469462846FFF709FF202045
:1009C000009069462846FFF703FF02240094694619
:1009D0002846FFF7FDFE02212846FFF743FF0420CB
:1009E000009069462846FFF7F3FE0120FFF7C2FE9C
:1009F0002C850A20FFF7BEFEAC617820FFF7BAFE17
:100A0000CF2000F035F9002000F03DF9C92000F0BA
:100A10003AF9302000F037F9ED2000F029F9642090
:100A200000F031F9032000F02EF9122000F02BF92C
:100A3000812000F028F9E82000F01AF9852000F064
:100A400022F9102000F01FF97A2000F01CF9CB20C9
:100A500000F00EF9392000F016F92C2000F013F9FF
:100A6000002000F010F9342000F00DF9032000F010
:100A70000AF9F72000F0FCF8202000F004F9EA2041
:100A800000F0F6F8002000F0FEF8002000F0FBF87F
:100A9000C02000F0EDF81B2000F0F5F8C12000F0B8
:100AA000E7F8002000F0EFF8C52000F0E1F8302072
:100AB00000F0E9F8302000F0E6F8C72000F0D8F8A0
:100AC000B72000F0E0F8362000F0D2F8682000F0FF
:100AD000DAF83A2000F0CCF8552000F0D4F8B12034
:100AE00000F0C6F8002000F0CEF81A2000F0CBF895
:100AF000B62000F0BDF80A2000F0C5F8A22000F0F2
:100B0000C2F8F22000F0B4F8002000F0BCF8262073
:100B100000F0AEF8012000F0B6F8E02000F0A8F8F0
:100B20000F2000F0B0F8282000F0ADF8292000F0E8
:100B3000AAF80D2000F0A7F8112000F0A4F8092071
:100B400000F0A1F8542000F09EF8A82000F09BF8D7
:100B5000462000F098F80F2000F095F81A2000F0D9
:100B600092F80E2000F08FF8142000F08CF80C2082
:100B700000F089F8002000F086F8E12000F078F815
:100B8000002000F080F81B2000F07DF81E2000F00F
:100B90007AF8072000F077F8132000F074F80720A7
:100BA00000F071F82A2000F06EF8472000F06BF892
:100BB000392000F068F8032000F065F8092000F003
:100BC00062F80C2000F05FF8352000F05CF83D2062
:100BD00000F059F80F2000F056F82B2000F048F8EC
:100BE000002000F050F8002000F04DF8012000F047
:100BF0004AF83F2000F047F82A2000F039F800209A
:100C000000F041F8002000F03EF8002000F03BF832
:100C1000EF2000F038F8112000F02AF87820FFF7D4
:100C2000A9FD292000F024F87CBD30B504460D460E
:100C30002A2000F01DF8200A00F025F8E0B200F0AC
:100C400022F8012000F01FF83F2000F01CF82B20B4
:100C500000F00EF8280A00F016F8E8B200F013F8D9
:100C6000002000F010F8BDE83040EF2000F00BB895
:100C700030B54FF09044012525850421218500F0F1
:100C800081FAA56130BD30B54FF09044012525852E
:100C90000421A16100F076FAA56130BD70B505466A
:100CA0004FF09044012626850420A061280A00F018
:100CB00069FAE8B200F066FAA66170BD70B5044644
:100CC0000E46E020FFF7D4FF002508E00F2D0BD0E3
:100CD0002078FFF7D8FF2078705564686D1C002CD1
:100CE00001D01E2DF2DB70BDE120FFF7C1FF20789F
:100CF000FFF7C9FF2078F07364681025EFE710B59F
:100D0000044603E064682088FFF7C8FF002CF9D18F
:100D100010BDFEE77047000070B50F23C2780126B2
:100D20000178002A1ED0144A126802F4E062C2F56B
:100D3000E062120AC2F10404D3404578A5408278EB
:100D40001A402A43120101F1E02181F800240078C1
:100D500000F01F018E404009800000F1E020C0F843
:100D6000006170BD01F01F0086404809800000F15D
:100D7000E020C0F8806170BD0CED00E0024908433E
:100D800002490860704700000000FA050CED00E021
:100D90007047000010B50446082001F08DFB048068
:100DA000002141600A4C21680A8832B1002231B129
:100DB00000231A4306D0206010BD0122F7E701236B
:100DC000F7E711464A68002AFBD1486010BD0000D1
:100DD0005400002010B50446082001F06DFB04709B
:100DE000002141600A4C61680A7832B1002231B1B9
:100DF00000231A4306D0606010BD0122F7E70123EB
:100E0000F7E711464A68002AFBD1486010BD000090
:100E100054000020054A002903D051690143516163
:100E200070475169814351617047000000100240D2
:100E3000054A002903D0D1690143D1617047D169C6
:100E40008143D16170470000001002402DE9F04756
:100E50000021DFF82083D8F8042002F00C02C64EEF
:100E6000002A3AD0042A3AD0082A3AD00660D8F8A4
:100E7000042002F0F0021209C04CA55C026822FABC
:100E800005F34360D8F8047007F4E0673F0A14F8EC
:100E900007C023FA0CF78760D8F804C00CF4605C34
:100EA0004FEADC2C14F80C40E340C360D8F82CC0A7
:100EB0004FEA1C1CDFF8C4A20CF00F090AF1100A5B
:100EC0003AF819905FEACC6C24D5B9F1000F21D023
:100ED000B1FBF9FCC0F810C01DE00660C7E7066072
:100EE000C5E7D8F8041001F47011D8F8042002F412
:100EF0008032022303EB91414AB1D8F82C2002F052
:100F00000F02521CB6FBF2F251430160AFE79C4A5C
:100F10005143FAE70261D8F82CC04FEA5C2C0CF080
:100F20000F093AF819905FEACC6C07D5B9F1000FB8
:100F300004D0B1FBF9FCC0F814C000E04261D8F85D
:100F400030C05FEACC6C01D4866100E08261D8F8E1
:100F500030C05FEA8C6C01D4C66100E0C261D8F891
:100F600030C05FEA4C6C01D4066200E00262D8F83F
:100F700030C05FEACC5C08D58A4206D1AC4204D1CD
:100F80004FEA410CC0F824C000E04362D8F830C0FA
:100F90005FEACC4C08D58A4206D1AC4204D14FEA74
:100FA000410CC0F828C000E08362D8F830C05FEA86
:100FB0008C5C08D58A4206D1AC4204D14FEA410C80
:100FC000C0F82CC000E0C362D8F830C05FEA4C5CC7
:100FD00008D58A4206D1AC4204D14FEA410CC0F890
:100FE0004CC000E0C364D8F830C05FEA0C5C08D5A0
:100FF0008A4206D1AC4204D14FEA410CC0F850C03D
:1010000000E00365D8F830C05FEA8C4C08D58A420E
:1010100006D1AC4204D14FEA410CC0F854C000E004
:101020000365D8F830C05FEA0C4C06D58A4204D17B
:10103000AC4202D14900816500E08365D8F83010E8
:101040008C074FF4004111D0D8F8303003F003037F
:10105000012B0DD0D8F8303003F00303022B09D058
:10106000D8F83030DB439B0706D006E0836304E00A
:10107000826302E0816300E08663D8F8303013F4C5
:10108000403F12D0D8F83030C3F30143012B0ED0CB
:10109000D8F83030C3F30143022B0AD0D8F83030EF
:1010A000C3F30143032B06D006E0C76304E0C26329
:1010B00002E0C16300E0C663D8F8303013F4402F7B
:1010C00012D0D8F83030C3F38143012B0ED0D8F8BA
:1010D0003030C3F38143022B0AD0D8F83030C3F349
:1010E0008143032B06D006E0076404E0026402E0BB
:1010F000016400E00664D8F8303013F4401F12D0C9
:10110000D8F83030C3F30153012B0ED0D8F830306B
:10111000C3F30153022B0AD0D8F83030C3F3015384
:10112000032B06D006E0476404E0426402E0416419
:1011300000E04664D8F8303013F4400F14D0D8F8EB
:101140003030C3F38153012B10D0D8F83020C2F3D4
:101150008152022A0CD0D8F83010C1F381510329F2
:1011600000D18664BDE8F0878764FBE78264F9E715
:101170008164F7E70010024000127A0000000020AE
:1011800000093D0030B50021802410234FF090422B
:101190001385050601D5946100E01485936140062E
:1011A000000E491C0829F3DB30BD70470CB5002246
:1011B000019200922248016841F4803101604FF4AD
:1011C000A043016801F4003100910199491C01918B
:1011D000009911B901999942F3D10168890302D5A7
:1011E0000121009100E000920099012926D1154AC1
:1011F000122111604168416041684160416841F4D9
:1012000080614160416821F47C114160416841F492
:10121000E8114160016841F0807101600168890155
:10122000FCD5416821F003014160416841F00201B1
:1012300041604168C1F381010229FAD10CBD00006F
:1012400000100240002002407047000010B5164810
:10125000016841F4700101601448016841F0010126
:1012600001604168124A114041600168114A114011
:101270000160016821F480210160416821F4FE01D0
:101280004160C16A21F00F01C162016B0A4A11403D
:10129000016300218160FFF789FF03494FF000607F
:1012A0008039086010BD000088ED00E000100240A9
:1012B0000CC07FF8FFFFF6FECCFC00FF2DE9F041EB
:1012C000494E4849304600F0A9F800286FD0304612
:1012D00000F03AF9C5B2454A2809107005F00F012F
:1012E0005170102869D2DFE800F068080E151C2341
:1012F000272F333B484E555E636E908820F00F00D9
:101300000843908059E0908820F0F00040EA0110F6
:10131000908052E0908820F4706040EA0120908034
:101320004BE0908820F4704040EA0130908044E027
:101330009088FFF700FB40E000210846FFF775FCAE
:101340002C20FFF795FC38E09088FFF723FD34E070
:10135000274C2068FFF7D3FC2068FFF71DFA2CE02C
:101360000024244F3046395D00F0F2F80120FFF7E9
:1013700001FA641C1E2CF5DB1FE0907820F00F00B2
:101380000843907019E0907820F0F00040EA0110D6
:10139000907012E0184C17492068FFF78FFC206806
:1013A000FFF708FA09E09078FFF714FD05E016E072
:1013B0009088FFF759FAFFF7EDFC29463046BDE863
:1013C000F04100F0C5B8BFF34F8F0C4801680C4ADC
:1013D00001F4E06111430160BFF34F8FFEE7BDE808
:1013E000F0810000050105000048004030000020A9
:1013F0005400002036000020580000200CED00E0D2
:101400000400FA05002904D0016841F001010160DF
:101410007047016821F001010160704730B5002478
:10142000C1F30723012505FA01F2012B0CD0022B91
:101430000DD083681340090C8D40C06928400BB162
:1014400000B10124204630BD03681340F3E7436830
:101450001340F0E710B5C1F3072401238B40022CA1
:1014600002D0032C02D002E0001D00E008301AB1C7
:1014700001681943016010BD01689943016010BD06
:1014800030B597B004460D46206820F0010020607A
:10149000606820F44051A86808436060206841F209
:1014A0000C618843EA68696811432A690243114361
:1014B0002160A06820F4407069690143A16068461A
:1014C000FFF7C4FC1C48844201D10E990FE01B4871
:1014D000844201D10F990AE01948844201D1109940
:1014E00005E01848844201D1119900E01299206862
:1014F000000408D52A684900B1FBF2F0B1FBF2F311
:1015000002FB131106E02A68B1FBF2F0B1FBF2F323
:1015100002FB13112A68B1EB520F00D3401C216863
:10152000090405D5C0F342014FF6F072104008439C
:10153000A08117B030BD00000038014000440040D9
:1015400000480040004C0040808CC0F30800704709
:10155000C1F3080101857047FEE7000030B589B08E
:101560000121C804FFF756FC01218804FFF760FC45
:101570004FF44060079002208DF8200003208DF882
:10158000210000248DF822401A4D07A92846FFF7B4
:101590001FF907220A212846FFF754F907220B21D9
:1015A0002846FFF74FF94FF4E130019006940C20E4
:1015B00005900494039402940F4C01A92046FFF770
:1015C0005FFF01212046FFF71DFF01220B49204646
:1015D000FFF740FF27208DF8000001208DF8030061
:1015E0008DF801008DF802006846FFF795FB09B001
:1015F00030BD00000008004800480040050105001B
:1016000003B401984100009850EAC12018BF04209B
:101610004A0D18BF40F0010040F2FF72B2EB515F7B
:1016200008BF40F00200012808BF052002B0704743
:101630002DE9F04D2DED040B2DED0C8B96B0DDE971
:101640002350259CDDF888A025F0004624F00048B2
:10165000BAF1000F14BF0121002101EB4502FE4940
:1016600053184A1093422AD3002814BF01230023A1
:1016700003EB44030B44F9498B4220D358EA0001A1
:101680009FEDF78B6FD0DFF8E0B35D4503D1BAF182
:10169000000F05D187E0BAF1000F08BF002100D08C
:1016A000012101EB450111F5001F08D8002814BFE6
:1016B0000121002101EB440111F5001F0BD99DED23
:1016C000241B9DED220B16B0BDEC0C8B04B0BDE8C5
:1016D000F04D00F05DBE0027002DBCBFE3498845FA
:1016E00021DAE3498845A8BF02271CDAC3451ADC82
:1016F000E04901EB2851142908DDC1F1340220FA38
:1017000002F101FA02F282420DD108E058B9C1F1AA
:10171000140228FA02F101FA02F2424503D101F063
:101720000101C1F1020756EA0A011DD1002C1BDAA2
:10173000002D18BF022F01D0012F0AD0022000F087
:1017400073FE16B0BDEC0C8B04B0BDE8F04D00F09C
:1017500007BE022000F068FE00F002FE51EC100B04
:1017600081F0004183E01EE09FEDC39B9FEDC4AB81
:10177000002872D1BD4880452DD105F1804010F57B
:10178000801008BFBAF1000F0DD0B34515DC002C56
:10179000A1BF9DED240B16B0BDEC0C8B04B0A8BF0F
:1017A000BDE8F08D12E0B0EE480AF0EE680A16B01F
:1017B000BDEC0C8B04B0BDE8F08D002C06DA9DED7D
:1017C000240B51EC100B81F0004150E0AE487844FE
:1017D00090ED000BEBE7D8454FD1002C4ADA2EB143
:1017E00086423BD1BAF1000F44D126E0BAF1000F96
:1017F00013D0022000F018FE00F0E6FD8DED020B84
:101800009DED220B8DED000B10EE900A039961F314
:101810001E0003909DED020BC9E78DED029B9DED2F
:10182000220B19EE901A10EE900A8DED000B61F369
:101830001E0003909DED020BB9E78DED02AB9DED0F
:10184000220B1AEE901A10EE900A8DED000B61F348
:101850001E0003909DED020BA9E729E00ADA9DED39
:10186000220B51EC180B53EC102BFEF75FFE41ECF2
:10187000100B9CE79DED220B99E7864218DAB4F134
:10188000804F0DD0A4F10050B0F1FF5010D1002DC9
:101890000EDB9DED220B51EC100B00F043FEE6E752
:1018A0009DED220B53EC102B51EC100B00F0AEBC55
:1018B0009DED220B51EC100B00F0BCFDBAF1000FB6
:1018C000CDE90C0134D19FED720BDEB1A6F1E04001
:1018D000B0F17F602CD1002D01DD002C0DDA002D40
:1018E00001DD002C1FDB002D16DA002C14DB012F8C
:1018F00008BF9FED690B3FF45AAFB0EE490AF0EE16
:10190000690A54E7022F18BF002D0CD0012F0AD10D
:10191000002DFFF64CAF06E0002DB8BF002C07DA13
:10192000012F3FF444AFB0EE4A0AF0EE6A0A3EE7F8
:10193000012000EBE57A5AEA07000CD05848002550
:1019400080457CDD57495848884514DDB0420DDBA1
:10195000002C19DB2BE0012000F066FD16B0BDEC79
:101960000C8B04B0BDE8F04D00F01EBDB34502DCA9
:10197000002C09DC1BE0864202DA002C17DA03E0B7
:101980005E4527DD002C12DD022000F04DFD00F049
:101990001BFD10EE901A19EE900A8DED020B8DEDE5
:1019A000009B61F31E0003909DED020BFFE60220F9
:1019B00000F03AFD00F018FD10EE901A18EE900AB3
:1019C0008DED020B8DED008B61F31E0003909DEDFC
:1019D000020BECE69DED220B53EC182B51EC100B97
:1019E000FEF79EFD9FED320BCDE90A0153EC102B63
:1019F0009DED0A0B51EC100BFEF7E2FB9FED2E1B49
:101A000053EC112BFEF78FFD9DED0A1B53EC112BB0
:101A1000FEF7D6FB9FED2A1B53EC112BFEF783FD3F
:101A20009DED0A0B41EC190B53EC102B51EC100BF4
:101A3000FEF7C6FB53EC192BFEF7C2FB00E07EE07D
:101A40009FED210B41EC1A0B53EC102B9DED0A0B73
:101A500051EC100B3CE00000FFFF1F00FFFF0F00E8
:101A6000000000000000F03F0000F03F0000F07FA9
:101A70000000404301FCFFFF000000000000F07F79
:101A800000000000000000004E0E000000000000FA
:101A90000000000000000080000000000000F0FFD7
:101AA0000000E0410000F043FFFFEF3F00000000B6
:101AB000000000000000D03F555555555555D53F05
:101AC000000000000000E03F000000604715F73F05
:101AD000FEF776FB41EC190B9FEDFD0B51EC1A0B59
:101AE00053EC102BFEF76CFB41EC1A0B9FEDFA0B3D
:101AF00053EC102B9DED0A0B51EC100BFEF760FB25
:101B000053EC1A2BFEF70CFD41EC1A0B51EC190BA0
:101B100053EC1A2BFEF763FC0690CDE906519DEDC0
:101B2000060B53EC192B51EC100BFEF7F9FC53ECA0
:101B30001A2BFEF7F8FC41EC100B00F09FB90020C7
:101B4000B6F5801F0EDA9FEDE60B53EC102B9DEDE2
:101B50000C0B51EC100BFEF733FBCDE90C016FF0D1
:101B600034000E4600EB2650A0F2FF38C6F31300F7
:101B7000DD4940F07F6646F040568842D8BF0024D9
:101B800009DDDA498142C8BF012404DC0024A6F53E
:101B9000801608F10108D648784400EBC4000D9681
:101BA00090ED00BB9DED0C0B53EC1B2B51EC100B7F
:101BB000FEF7B6FC9DED0C0B41EC1A0B53EC1B2B06
:101BC00051EC100BFEF70BFC41EC100B51EC180B19
:101BD00053EC102BFEF7AAFC41EC1C0B51EC1A0B3A
:101BE00053EC1C2BFEF7ECFA41EC190BC1488DEDC0
:101BF000109B7844109590ED000B4FF0005040EA98
:101C0000660000EB84408DED0A0B00F500200B9080
:101C10009DED0A0B53EC1B2B51EC100BFEF780FCD7
:101C20009DED0C1B53EC112BFEF77DFC41EC100BD2
:101C300053EC102B9DED100B51EC100BFEF7C0FA7E
:101C40009DED0A0B41EC1B0B53EC102B9DED100B83
:101C500051EC100BFEF7B4FA53EC1A2BFEF763FCB1
:101C600053EC1B2BFEF75CFC53EC1C2BFEF7A8FA85
:101C700041EC1B0B53EC192B51EC190BFEF7A0FA9E
:101C800041EC1A0B9C480621B0EE4A0AF0EE6A0AB3
:101C9000784400F0E9FAB0EE40CAF0EE60CA53ECC6
:101CA0001A2B51EC1A0BFEF78BFA53EC1C2BFEF798
:101CB00087FA9DED100B41EC1A0B53EC192B51ECEC
:101CC000100BFEF78CFB53EC1B2BFEF779FA53EC51
:101CD0001A2BFEF784FB9DED100B41EC1A0B53EC15
:101CE000102B51EC100BFEF76BFA41EC1C0B9FED27
:101CF00084DB53EC1D2BFEF772FB53EC1A2BFEF723
:101D00006EFB0A90CDE90A519DED0A0B53EC1D2B99
:101D100051EC100BFEF704FC53EC1C2BFEF700FCFF
:101D200053EC1A2BFEF7FFFB9DED0A0B41EC1C0B4D
:101D300053EC102B9DED100B51EC100BFEF740FAFD
:101D400041EC1A0B53EC192B51EC1C0BFEF738FA33
:101D50009DED0A0B41EC190B53EC102B51EC1B0BB6
:101D6000FEF72EFA53EC192BFEF739FB41EC190B59
:101D700051EC1A0B53EC192BFEF731FB1090CDE907
:101D800010519DED100B53EC1A2B51EC100BFEF77C
:101D9000C7FB53EC192BFEF7C6FB41EC190B9FED6B
:101DA0005A0B53EC102B9DED100B51EC100BFEF762
:101DB00007FA41EC1A0B9FED560B51EC190B53EC43
:101DC000102BFEF7FDF941EC190B9FED530B53EC73
:101DD000102B9DED100B51EC100BFEF7F1F953ECAD
:101DE000192BFEF7FCFA41EC100B4D48784400EB40
:101DF000C40090ED001B51EC100B53EC112BFEF7BF
:101E0000EEFA41EC190B4046FEF74CFACDE90A0117
:101E100053EC192B51EC1A0BFEF7E1FA41EC100BC5
:101E20004048784400EBC40090ED00BB51EC100B2F
:101E300053EC1B2BFEF7D3FA9DED0A1B53EC112B31
:101E4000FEF7CDFA0690CDE906519DED0A0B53EC55
:101E5000102B9DED060B51EC100BFEF761FB53ECC4
:101E60001B2BFEF75DFB53EC1A2BFEF759FB53ECD3
:101E7000192BFEF758FB41EC100B00BF781EB0EE9B
:101E800048AAF0EE68AA5AEA000008BF9FED268B28
:101E90009DED241B53EC102B8DED001B00959DED4B
:101EA000240B51EC100BFEF78BF99DED000B41EC70
:101EB000190B53EC102B9DED240B51EC100BFEF77E
:101EC0002FFB9DED061B53EC112BFEF779F92FE04C
:101ED000FE822B654715F73F44DF5DF80BAE543E9D
:101EE00000000000000040438E9803007AB60B000B
:101EF000FC0900002A0A000034090000000000006C
:101F00000000000000000840000000E009C7EE3FAC
:101F1000FD033ADC09C7EE3FF5015B14E02F3EBE3E
:101F2000C807000082070000000000000000F0BFAA
:101F300053EC192BFEF753FA9DED060B41EC190BF0
:101F400053EC102B9DED000B51EC100BFEF738F904
:101F5000CDE910019DED100B51EC190B53EC102B3A
:101F6000FEF73DFACDE902010C46AB498C422FDB6E
:101F7000611A084318D19DED100B53EC102B9DED09
:101F8000020B51EC100BFEF7CBFA41EC1B0B9FED53
:101F9000A40B51EC190B53EC102BFEF720FA53EC69
:101FA0001B2BFEF749FB2DD2022000F03DFA00F07A
:101FB0000BFA10EE901A18EE900A8DED020B8DEDD3
:101FC000008B61F31E0003909DED020BFFF7EFBB4A
:101FD000954A24F00041914214D394492144084386
:101FE0007FF4E5AC9DED100B53EC102B9DED020B37
:101FF00051EC100BFEF794FA53EC192BFEF71CFB77
:102000007FF6D5AC24F0004089498A4A002601EBCE
:10201000205182422BDA481C4FF4801121FA00F043
:102020002044854AC0F30A517A44A1F2FF3192ED6F
:10203000000B824A8DED0A0BCA4020EA0202C0F36F
:10204000130040F48010C1F1140120FA01F60B9244
:10205000002CB8BF76429DED0A0B53EC102B9DED82
:10206000100B51EC100BFEF75BFACDE910019DED62
:10207000100B51EC190B53EC102BFEF7B0F99FED40
:10208000700B0A90CDE90A5153EC102B9DED0A0B11
:1020900051EC100BFEF794F841EC1B0B9FED6A0B13
:1020A00053EC102B9DED0A0B51EC100BFEF788F84A
:1020B0009DED100B41EC1C0B53EC102B9DED0A0B0E
:1020C00051EC100BFEF72CFA53EC192BFEF72BFA00
:1020D0009FED5F1B53EC112BFEF772F853EC1C2B9A
:1020E000FEF77DF941EC190B51EC1B0B53EC192B4E
:1020F000FEF775F9CDE902019DED020B53EC1B2BA8
:1021000051EC100BFEF70CFA53EC192BFEF70BFAFF
:102110009DED020B41EC190B53EC102B51EC100B05
:10212000FEF74EF8CDE90A014B489DED0A0B05215B
:10213000784400F099F89DED0A1B51EC100B53EC1C
:10214000112BFEF73DF89DED021B53EC112BFEF712
:10215000EAF9CDE906019DED020B53EC192B51EC88
:10216000100BFEF72DF853EC192BFEF738F99FED05
:102170003C0B41EC190B53EC102B9DED060B51EC75
:10218000100BFEF7CDF99DED060B41EC1B0B53EC4C
:10219000102B9DED020B51EC100BFEF711F853ECD8
:1021A0001B2BFEF7C3F953EC192BFEF7B9F99DED84
:1021B000021B53EC112BFEF7B3F953EC1A2BFEF76D
:1021C000B2F9CDE9020101EB065001150029C8BFA3
:1021D000039015DC9DED020B324651EC100BFEF71F
:1021E00014FAFFF70DFA042808BF00F0FDF8324694
:1021F0009DED020B51EC100BFEF707FACDE9020141
:102200009DED020B51EC180B53EC102BFDF7D8FF92
:10221000FFF72DBB00000000000090400000000010
:10222000FE822B654715973C00CC904000346F3FF1
:1022300001FCFFFF0000E03FF4050000FFFF0F007E
:1022400000000000432EE63F396CA80C615C20BE04
:10225000EF39FAFE422EE63FC40400000000000001
:10226000000000000000004070B504462DED028B18
:102270004D1E00EBC500B0EE408AF0EE608A90ED96
:10228000000B35F0060017D053EC182B51EC100B57
:10229000FDF796FF41EC100B6D1E04EBC50090EDB1
:1022A000001B51EC100B53EC112BFEF798F841EC8E
:1022B000100B35F00600E7D1022D36D0042D1CD0CE
:1022C000062D1CBFBDEC028B70BD53EC182B51ECDE
:1022D000100BFDF775FF94ED0A1B53EC112BFEF765
:1022E0007EF853EC182BFDF76BFF94ED081B53ECB5
:1022F000112BFEF774F841EC100B53EC182B51EC3A
:10230000100BFDF75DFF94ED061B53EC112BFEF750
:1023100066F853EC182BFDF753FF94ED040B53ECC8
:10232000102BFEF75CF841EC100B53EC182B51EC22
:10233000100BFDF745FF94ED021B53EC112BFEF73C
:102340004EF853EC182BFDF73BFF94ED001B53ECBC
:10235000112BFEF744F8BDEC028B41EC100B70BD65
:102360009FED070B10B553EC102B9FED070B51ECB5
:10237000100BFEF7DBF841EC100B10BD0000000065
:102380000000000000000000000000000000F03F1E
:1023900010B553EC112B51EC100BFEF720F841EC6B
:1023A000100B10BD000000009FED050B10B553ECA5
:1023B000102B51EC100BFEF7B9F841EC100B10BDCF
:1023C00000000000000000009FED050B10B553EC6D
:1023D000102B51EC100BFDF7F3FE41EC100B10BD70
:1023E00000000000000000709FED050B10B553ECDD
:1023F000102B51EC100BFDF7E3FE41EC100B10BD60
:10240000000000000000001002E008C8121F08C110
:10241000002AFAD170477047002001E001C1121F65
:10242000002AFBD170470000014908607047000096
:102430006400002082B0CDE9000121F0004001904D
:102440009DED000B02B051EC100B704710B5002849
:1024500021D0114B0022001F196803E0814203D8EC
:102460000A4649680029F9D152B11368841A9C427E
:1024700004D1006818441060104602E0506000E08B
:10248000186039B102680B1A934203D10B681A44E1
:1024900002604968416010BD5C000020FEF75FFAF1
:1024A000FFF75CF84FF4A060FEF768FC20214FF0C6
:1024B0009040FEF7D7F9FEE7F0B50B30154D20F050
:1024C00007010024144A0FE003688B420BD38B42B0
:1024D00005D95E1A43184768C3E9006700E04368FE
:1024E000136002C004E0021D10680028ECD12046F1
:1024F000002802D1286808B10020F0BD064A07482C
:102500001060074A121A22F00702C0E900240120D5
:102510002860D7E7600000205C0000206C000020ED
:10252000688F002000B52DED048B83B041EC190BB2
:10253000FEF7CDF841EC180B18EE100A18EE901AC1
:102540008DED008B002818BF0120084320F00040CB
:10255000C0F17F6000F1E040C00F14D019EE101AF6
:1025600019EE900A8DED009B002918BF0121084348
:1025700020F00040C0F17F6000F1E040C00F04BFD8
:102580000120FFF751FF51EC180B03B0BDEC048B99
:1025900000BD000000000000000000000000F03F4F
:1025A000000000000000F83F0000000000000000F4
:1025B0000000004003B8E23F0000000000000000FF
:1025C00006D0CF43EBFD4C3E033333333333E33F8D
:1025D000FFAB6FDBB66DDB3F4D268F515555D53FB9
:1025E00001411DA96074D13F65DBC9934A86CD3F87
:1025F000EF4E454A287ECA3F3E5555555555C53F75
:1026000093BDBE166CC166BF2CDE25AF6A56113F66
:10261000F16BD2C541BDBBBED0A4BE726937663E68
:102620000000000000000000482600080000002014
:102630006800000008240008B02600086800002098
:10264000408F00001824000800000000010203046D
:102650000102030406070809010002000400060045
:1026600008000A000C00100020004000800000015B
:1026700000000000000000000000FF0000000F2824
:10268000290D110954A8460F1A0E140C00001B1E28
:102690000713072A473903090C353D0F00000000D6
:1026A000000000000000000000000000000000002A
:040000050800019D51
:00000001FF
