:020000040800F2
:10000000F08F00209D010008490B000869070008D7
:10001000470B000895050008911300080000000038
:10002000000000000000000000000000DF0F0008DA
:100030007306000800000000C50B00087D100008D2
:10004000B7010008B7010008B7010008B7010008B0
:10005000B7010008B7010008B7010008B7010008A0
:10006000B7010008B7010008B7010008B701000890
:10007000B7010008B7010008B7010008B701000880
:10008000B7010008B7010008B7010008B701000870
:10009000B7010008B7010008B7010008B701000860
:1000A000B7010008B7010008B7010008B701000850
:1000B000B7010008B7010008B7010008B701000840
:1000C000B7010008B7010008B7010008B701000830
:1000D000B7010008B7010008B7010008F1100008D7
:1000E000B7010008B7010008B7010008B701000810
:1000F000B7010008B7010008B7010008B701000800
:10010000000000000000000000000000B70100082F
:10011000B7010008B7010008B7010008B7010008DF
:10012000B7010008B7010008B7010008B7010008CF
:10013000B7010008B701000800000000000000003F
:10014000B7010008B7010008B7010008000000006F
:10015000000000000000000000000000000000009F
:100160000000000000000000B7010008B70100080F
:10017000B7010008000000000000000000000000BF
:1001800000000000B7010008DFF80CD000F0F0F923
:1001900000480047A9140008F08F00200648804757
:1001A00006480047FEE7FEE7FEE7FEE7FEE7FEE75C
:1001B000FEE7FEE7FEE7FEE7811000088901000880
:1001C0002DE9FE4F804681EA0300C00F0C460090E7
:1001D00021F0004123F00045B8EB0200A94105D20F
:1001E0004046214690461C460B46024623F00040FE
:1001F000104347D0270DC7F30A00C3F30A510290FA
:10020000401A019040286BDAC3F3130040F4801BBE
:100210000098924620B10023D2EB030A63EB0B0B4C
:1002200001985946C0F14002504600F012F90646C6
:100230000D4650465946019A00F02AF910EB080085
:100240006141002487EA115284EAE7731A4340D0DF
:10025000009A62B3019A012A4FEA075215DC001B8B
:1002600061EB02014FF0004202EA0752CDE9004281
:10027000001C41F5801132462B4600F02AF903B0EC
:10028000BDE8F08F40462146F9E7001B61EB020113
:10029000001C41F5801300185B412018A2F50017DF
:1002A00047EB030140EAD570B6196D4111E06D08C6
:1002B0004FEA360645EAC0754FEA0752001B61EB6C
:1002C0000201001C41F5801149084FEA3000001975
:1002D000514132462B4603B0BDE8F04F00F0EAB87A
:1002E0000098012240000023D0EB020263EBE07390
:1002F000009821464FEAE074B8EB000061EB04017E
:10030000E9E783F000435BE781F0004158E72DE91E
:10031000FE4F81EA030404F0004421F00041009400
:100320004FF0000B23F0004350EA01045ED052EA84
:1003300003045BD0C3F30A54C1F30A552C44A4F25E
:10034000F3340194A0FB0254C1F3130141F4801172
:10035000C3F3130343F4801301FB024400FB034E79
:10036000840A970A44EA815447EA8357A4FB076842
:1003700002958D0A05FB07854FEA932C04FB0C546C
:100380002705029D4FEA065847EA1637B5EB0805E0
:100390006EEB070C870E920E47EA811742EA831232
:1003A000A7FB0201B6EB0B0164EB00042B0D43EA43
:1003B0000C335E1844EB1C50DA465146E7FB020151
:1003C000C5F313044FEA0B3343EA14534FEA0432E4
:1003D000019C43EA0603A4F10C040294009CCDE9BD
:1003E00000B400F076F803B0BDE8F08F00200146BD
:1003F000F9E70EB5C10F80EAE0700844CA07002192
:1004000040F233438DE80E000A460B4600F061F8D7
:1004100003B000BD70B5C1F30A5201F000450024DD
:10042000C1F3130140F2FF3341F480119A4201DA23
:10043000002070BD40F233439A42A2F2334203DC03
:10044000524200F015F800E090402C43F1D04042B9
:1004500070BD202A04DB203A00FA02F10020704728
:100460009140C2F1200320FA03F3194390407047F2
:10047000202A04DB203A21FA02F00021704721FAF9
:1004800002F3D040C2F12002914008431946704760
:10049000202A06DBCB17203A41FA02F043EAE07348
:1004A00006E041FA02F3D040C2F120029140084335
:1004B0001946704710B5141E73F1000408DA401C89
:1004C00041F1000192185B411A4301D120F0010073
:1004D00010BD2DE9F04D92469B4611B1B1FA81F263
:1004E00002E0B0FA80F220329046FFF7B2FF0446F5
:1004F0000F4640EA0A0041EA0B0153465A460843B8
:1005000013D0114653EA010019D0C8F140025046F9
:10051000FFF7AEFF05460E46504659464246FFF7E6
:1005200098FF084305D0012004E020463946BDE885
:10053000F08D0020054346EAE0762C4337430A98C5
:100540006305E40AA0EB08000022FD0A44EA4754D0
:100550000A3002D500200146E9E70105101969417A
:10056000DDE9084500196941BDE8F04DA2E700004A
:10057000064C074D06E0E06840F0010394E80700F0
:1005800098471034AC42F6D3FFF702FE301500084E
:1005900050150008FEE72DE9F0410C462DED028BC9
:1005A00000F01F01C0F34515C60A0846FFF721FFFA
:1005B00094ED0A0B94ED041B41EC180B53EC102B3B
:1005C00051EC110BFFF7FCFD94ED101B53EC112BBC
:1005D000FFF7F6FD53EC182BFFF799FEFFF71AFF14
:1005E00007462846FFF705FF94ED080B94ED021B24
:1005F00041EC180B53EC102B51EC110BFFF7E0FD05
:1006000094ED0E1B53EC112BFFF7DAFD53EC182B76
:10061000FFF77DFEFFF7FEFE05463046FFF7E9FED9
:1006200094ED060B94ED001B41EC180B53EC102BD2
:1006300051EC110BFFF7C4FD94ED0C1B53EC112B87
:10064000FFF7BEFD53EC182BFFF761FEFFF7E2FE4C
:1006500001464FF6E070384320F4FC6040EA451054
:1006600020F4784040EAC12080B2BDEC028BBDE8A6
:10067000F081704742F2283148434FF0E021486151
:1006800000238B61012008610869C20701D0C00303
:10069000FAD50B618B61704770B505466C6803E055
:1006A0002046646800F0D8FE002CF9D10020686074
:1006B000288070BD70B505466C6803E0204664680C
:1006C00000F0CAFE002CF9D100206860287070BDCF
:1006D000F0B500220127032607FA02F30C681C403C
:1006E0009C422BD10D79012D01D0022D13D18468AC
:1006F000550006FA05FC24EA0C0484604C79AC40F1
:1007000085682C43846084889C43848084888B79AA
:1007100093401C4384800568530006FA03F4A54304
:1007200005600D79D0F800C09D4045EA0C050560D4
:10073000C568A543CC799C402C43C460521C102A48
:10074000CAD3F0BD10B54B07DB0E9A40C90800EBC9
:100750008100016A0F249C40A1430162016A114398
:10076000016210BD81617047FEE770B506464FF427
:1007700096350021084600F072F92C2000F092F91D
:10078000002403E0304600F0A3F9641CAC42F9D326
:1007900070BD7CB50121480400F056FA012188049F
:1007A00000F052FA0121C80400F04EFA0121480578
:1007B00000F04AFA01248DF8044003208DF805006A
:1007C000102000904FF0904569462846FFF780FFC3
:1007D0008021009169462846FFF77AFF402000906B
:1007E00069462846FFF774FF009469462846FFF7DC
:1007F0006FFF2020009069462846FFF769FF02241A
:10080000009469462846FFF763FF02212846FFF758
:10081000A9FF0420009069462846FFF759FF0120F0
:10082000FFF728FF2C850A20FFF724FFAC61782012
:10083000FFF720FFCF2000F035F9002000F03DF950
:10084000C92000F03AF9302000F037F9ED2000F02F
:1008500029F9642000F031F9032000F02EF912206C
:1008600000F02BF9812000F028F9E82000F01AF9B7
:10087000852000F022F9102000F01FF97A2000F006
:100880001CF9CB2000F00EF9392000F016F92C20CD
:1008900000F013F9002000F010F9342000F00DF9F9
:1008A000032000F00AF9F72000F0FCF8202000F007
:1008B00004F9EA2000F0F6F8002000F0FEF800202D
:1008C00000F0FBF8C02000F0EDF81B2000F0F5F878
:1008D000C12000F0E7F8002000F0EFF8C52000F09C
:1008E000E1F8302000F0E9F8302000F0E6F8C72009
:1008F00000F0D8F8B72000F0E0F8362000F0D2F889
:10090000682000F0DAF83A2000F0CCF8552000F02A
:10091000D4F8B12000F0C6F8002000F0CEF81A207C
:1009200000F0CBF8B62000F0BDF80A2000F0C5F8C2
:10093000A22000F0C2F8F22000F0B4F8002000F08D
:10094000BCF8262000F0AEF8012000F0B6F8E02058
:1009500000F0A8F80F2000F0B0F8282000F0ADF863
:10096000292000F0AAF80D2000F0A7F8112000F0CF
:10097000A4F8092000F0A1F8542000F09EF8A82067
:1009800000F09BF8462000F098F80F2000F095F852
:100990001A2000F092F80E2000F08FF8142000F0DA
:1009A0008CF80C2000F089F8002000F086F8E12097
:1009B00000F078F8002000F080F81B2000F07DF8AF
:1009C0001E2000F07AF8072000F077F8132000F0DE
:1009D00074F8072000F071F82A2000F06EF8472024
:1009E00000F06BF8392000F068F8032000F065F89B
:1009F000092000F062F80C2000F05FF8352000F0CC
:100A00005CF83D2000F059F80F2000F056F82B203C
:100A100000F048F8002000F050F8002000F04DF8F9
:100A2000012000F04AF83F2000F047F82A2000F0AB
:100A300039F8002000F041F8002000F03EF80020D6
:100A400000F03BF8EF2000F038F8112000F02AF811
:100A50007820FFF70FFE292000F024F87CBD30B588
:100A600004460D462A2000F01DF8200A00F025F863
:100A7000E0B200F022F8012000F01FF83F2000F063
:100A80001CF82B2000F00EF8280A00F016F8E8B247
:100A900000F013F8002000F010F8BDE83040EF201F
:100AA00000F00BB830B54FF09044012525850421A6
:100AB000218500F081FAA56130BD30B54FF090443A
:100AC000012525850421A16100F076FAA56130BDDC
:100AD00070B505464FF09044012626850420A0619C
:100AE000280A00F069FAE8B200F066FAA66170BD63
:100AF00070B504460E46E020FFF7D4FF002508E05D
:100B00000F2D0BD02078FFF7D8FF20787055646840
:100B10006D1C002C01D01E2DF2DB70BDE120FFF713
:100B2000C1FF2078FFF7C9FF2078F07364681025B3
:100B3000EFE710B5044603E064682088FFF7C8FFBC
:100B4000002CF9D110BDFEE77047000070B50F23EF
:100B5000C27801260178002A1ED0144A126802F4D5
:100B6000E062C2F5E062120AC2F10404D3404578A3
:100B7000A54082781A402A43120101F1E02181F850
:100B80000024007800F01F018E404009800000F131
:100B9000E020C0F8006170BD01F01F0086404809E8
:100BA000800000F1E020C0F8806170BD0CED00E035
:100BB0000249084302490860704700000000FA0536
:100BC0000CED00E07047000010B50446082000F06E
:100BD00079FC0480002141600A4C21680A8832B106
:100BE000002231B100231A4306D0206010BD01223B
:100BF000F7E70123F7E711464A68002AFBD148606E
:100C000010BD0000A000002010B50446082000F030
:100C100059FC0470002141600A4C61680A7832B1C5
:100C2000002231B100231A4306D0606010BD0122BA
:100C3000F7E70123F7E711464A68002AFBD148602D
:100C400010BD0000A0000020054A002903D0516912
:100C50000143516170475169814351617047000000
:100C600000100240054A002903D0D1690143D16137
:100C70007047D1698143D161704700000010024084
:100C80002DE9F0470021DFF82083D8F8042002F096
:100C90000C02C64E002A3AD0042A3AD0082A3AD08A
:100CA0000660D8F8042002F0F0021209C04CA55CDE
:100CB000026822FA05F34360D8F8047007F4E0678D
:100CC0003F0A14F807C023FA0CF78760D8F804C06D
:100CD0000CF4605C4FEADC2C14F80C40E340C36079
:100CE000D8F82CC04FEA1C1CDFF8C4A20CF00F0986
:100CF0000AF1100A3AF819905FEACC6C24D5B9F1E0
:100D0000000F21D0B1FBF9FCC0F810C01DE0066057
:100D1000C7E70660C5E7D8F8041001F47011D8F8E9
:100D2000042002F48032022303EB91414AB1D8F847
:100D30002C2002F00F02521CB6FBF2F2514301606C
:100D4000AFE79C4A5143FAE70261D8F82CC04FEA5A
:100D50005C2C0CF00F093AF819905FEACC6C07D5BF
:100D6000B9F1000F04D0B1FBF9FCC0F814C000E0E9
:100D70004261D8F830C05FEACC6C01D4866100E0F3
:100D80008261D8F830C05FEA8C6C01D4C66100E0A3
:100D9000C261D8F830C05FEA4C6C01D4066200E052
:100DA0000262D8F830C05FEACC5C08D58A4206D12E
:100DB000AC4204D14FEA410CC0F824C000E04362C9
:100DC000D8F830C05FEACC4C08D58A4206D1AC4294
:100DD00004D14FEA410CC0F828C000E08362D8F883
:100DE00030C05FEA8C5C08D58A4206D1AC4204D19F
:100DF0004FEA410CC0F82CC000E0C362D8F830C004
:100E00005FEA4C5C08D58A4206D1AC4204D14FEA75
:100E1000410CC0F84CC000E0C364D8F830C05FEAB1
:100E20000C5C08D58A4206D1AC4204D14FEA410C91
:100E3000C0F850C000E00365D8F830C05FEA8C4CC1
:100E400008D58A4206D1AC4204D14FEA410CC0F821
:100E500054C000E00365D8F830C05FEA0C4C06D5FA
:100E60008A4204D1AC4202D14900816500E0836529
:100E7000D8F830108C074FF4004111D0D8F830303A
:100E800003F00303012B0DD0D8F8303003F0030337
:100E9000022B09D0D8F83030DB439B0706D006E0A0
:100EA000836304E0826302E0816300E08663D8F834
:100EB000303013F4403F12D0D8F83030C3F3014340
:100EC000012B0ED0D8F83030C3F30143022B0AD0E7
:100ED000D8F83030C3F30143032B06D006E0C763D4
:100EE00004E0C26302E0C16300E0C663D8F83030BA
:100EF00013F4402F12D0D8F83030C3F38143012BC4
:100F00000ED0D8F83030C3F38143022B0AD0D8F882
:100F10003030C3F38143032B06D006E0076404E0BE
:100F2000026402E0016400E00664D8F8303013F493
:100F3000401F12D0D8F83030C3F30153012B0ED02C
:100F4000D8F83030C3F30153022B0AD0D8F8303030
:100F5000C3F30153032B06D006E0476404E0426468
:100F600002E0416400E04664D8F8303013F4400FEA
:100F700014D0D8F83030C3F38153012B10D0D8F8F7
:100F80003020C2F38152022A0CD0D8F83010C1F3BD
:100F90008151032900D18664BDE8F0878764FBE7AF
:100FA0008264F9E78164F7E70010024000127A00DA
:100FB0000000002000093D0030B5002180241023EE
:100FC0004FF090421385050601D5946100E0148529
:100FD00093614006000E491C0829F3DB30BD7047C1
:100FE0000CB50022019200922248016841F4803140
:100FF00001604FF4A043016801F4003100910199B0
:10100000491C0191009911B901999942F3D10168E4
:10101000890302D50121009100E000920099012985
:1010200026D1154A12211160416841604168416032
:10103000416841F480614160416821F47C11416064
:10104000416841F4E8114160016841F0807101603C
:1010500001688901FCD5416821F0030141604168C4
:1010600041F0020141604168C1F381010229FAD1D6
:101070000CBD00000010024000200240704700003C
:1010800010B51648016841F4700101601448016808
:1010900041F0010101604168124A1140416001685C
:1010A000114A11400160016821F48021016041680A
:1010B00021F4FE014160C16A21F00F01C162016BA0
:1010C0000A4A1140016300218160FFF789FF03494B
:1010D0004FF000608039086010BD000088ED00E02E
:1010E000001002400CC07FF8FFFFF6FECCFC00FFB2
:1010F0002DE9F041494E4849304600F0ABF8002850
:101100006FD0304600F03CF9C5B2454A280910704E
:1011100005F00F01517010286AD2DFE800F069086D
:101120000E151C23272F333B484E555E636F908866
:1011300020F00F00084390805AE0908820F0F000E3
:1011400040EA0110908053E0908820F4706040EAFB
:10115000012090804CE0908820F4704040EA0130FB
:10116000908045E09088FFF700FB41E000210846B1
:10117000FFF775FC2C20FFF795FC39E09088FFF70E
:1011800023FD35E0274C2068FFF7D3FC2068FFF7EC
:1011900083FA2DE00024244F3046395D00F0F4F846
:1011A0000120FFF767FA641C1E2CF5DB20E0907825
:1011B00020F00F00084390701AE0907820F0F000C3
:1011C00040EA0110907013E0184C17492068FFF7AF
:1011D0008FFC2068FFF76EFA0AE09078FFF714FDA5
:1011E00006E017E012499088FFF7D5F9FFF7ECFC0D
:1011F00029463046BDE8F04100F0C6B8BFF34F8F36
:101200000C4801680C4A01F4E06111430160BFF32E
:101210004F8FFEE7BDE8F081050105000048004062
:1012200030000020A000002036000020A400002094
:10123000580000200CED00E00400FA05002904D05D
:10124000016841F0010101607047016821F001016E
:101250000160704730B50024C1F30723012505FA6A
:1012600001F2012B0CD0022B0DD083681340090C26
:101270008D40C06928400BB100B10124204630BD2B
:1012800003681340F3E743681340F0E710B5C1F378
:10129000072401238B40022C02D0032C02D002E051
:1012A000001D00E008301AB101681943016010BD4B
:1012B00001689943016010BD30B597B004460D46F2
:1012C000206820F001002060606820F44051A86888
:1012D00008436060206841F20C618843EA686968ED
:1012E00011432A69024311432160A06820F4407031
:1012F00069690143A1606846FFF7C2FC1C4884424B
:1013000001D10E990FE01B48844201D10F990AE0E8
:101310001948844201D1109905E01848844201D14E
:10132000119900E012992068000408D52A68490044
:10133000B1FBF2F0B1FBF2F302FB131106E02A68F5
:10134000B1FBF2F0B1FBF2F302FB13112A68B1EB2F
:10135000520F00D3401C2168090405D5C0F3420197
:101360004FF6F07210400843A08117B030BD000066
:10137000003801400044004000480040004C00405C
:10138000808CC0F308007047C1F3080101857047E5
:10139000FEE7000030B589B00121C804FFF754FC16
:1013A00001218804FFF75EFC4FF4406007900220A3
:1013B0008DF8200003208DF8210000248DF82240B4
:1013C0001A4D07A92846FFF783F907220A21284664
:1013D000FFF7B8F907220B212846FFF7B3F94FF4BE
:1013E000E130019006940C2005900494039402943B
:1013F0000F4C01A92046FFF75FFF01212046FFF7B0
:101400001DFF01220B492046FFF740FF27208DF8E2
:10141000000001208DF803008DF801008DF8020016
:101420006846FFF793FB09B030BD00000008004894
:10143000004800400501050002E008C8121F08C16D
:10144000002AFAD170477047002001E001C1121F45
:10145000002AFBD17047000010B5002821D0114BA5
:101460000022001F196803E0814203D80A46496838
:101470000029F9D152B11368841A9C4204D1006842
:1014800018441060104602E0506000E0186039B166
:1014900002680B1A934203D10B681A440260496830
:1014A000416010BDA8000020FFF773F9FFF772FF3D
:1014B0004FF4A060FFF77CFB20214FF09040FFF736
:1014C00051F9FEE7F0B50B30154D20F0070100246F
:1014D000144A0FE003688B420BD38B4205D95E1A86
:1014E00043184768C3E9006700E04368136002C01F
:1014F00004E0021D10680028ECD12046002802D12B
:10150000286808B10020F0BD064A07481060074A65
:10151000121A22F00702C0E9002401202860D7E750
:10152000AC000020A8000020B4000020B08F0020F4
:101530005015000800000020B0000000381400081A
:1015400000160008B0000020408F0000481400087A
:101550000000000001020304010203040607080959
:10156000010002000400060008000A000C00100040
:10157000200040008000000100000000000000008A
:101580000000FF0000000F28290D110954A8460F84
:101590001A0E140C00001B1E0713072A47390309F3
:1015A0000C353D0F00000000000000000000F03F7F
:1015B000D68DC74C250A833CF9CDE9837B9C293C19
:1015C00060DFAD43677D923C970E9B9D4C49E73FA2
:1015D00037D58E07806A473C9C4D1591F4E1573C06
:1015E0002871F3138A1C6C3CFFF3998B76B7DD3FAF
:1015F00000000000000000000000000000000000EB
:040000050800019D51
:00000001FF
