:020000040800F2
:10000000808F00209D01000847060008C1020008FB
:1000100045060008E5010008DD0D000800000000AD
:100020000000000000000000000000009B0A000823
:10003000E701000800000000C1060008390B0008B5
:10004000B7010008B7010008B7010008B7010008B0
:10005000B7010008B7010008B7010008B7010008A0
:10006000B7010008B7010008B7010008B701000890
:10007000B7010008B7010008B7010008B701000880
:10008000B7010008B7010008B7010008B701000870
:10009000B7010008B7010008B7010008B701000860
:1000A000B7010008B7010008B7010008B701000850
:1000B000B7010008B7010008B7010008B701000840
:1000C000B7010008B7010008B7010008B701000830
:1000D000B7010008B7010008B7010008AD0B000820
:1000E000B7010008B7010008B7010008B701000810
:1000F000B7010008B7010008B7010008B701000800
:10010000000000000000000000000000B70100082F
:10011000B7010008B7010008B7010008B7010008DF
:10012000B7010008B7010008B7010008B7010008CF
:10013000B7010008B701000800000000000000003F
:10014000B7010008B7010008B7010008000000006F
:10015000000000000000000000000000000000009F
:100160000000000000000000B7010008B70100080F
:10017000B7010008000000000000000000000000BF
:1001800000000000B7010008DFF80CD000F018F8FC
:1001900000480047F50E0008808F00200648804781
:1001A00006480047FEE7FEE7FEE7FEE7FEE7FEE75C
:1001B000FEE7FEE7FEE7FEE73D0B000889010008C9
:1001C000064C074D06E0E06840F0010394E80700A4
:1001D00098471034AC42F6D3FFF7DAFF7C0F0008E3
:1001E0009C0F0008FEE7704742F2283148434FF069
:1001F000E021486100238B61012008610869C20782
:1002000001D0C003FAD50B618B61704770B505460C
:100210006C6803E02046646800F044FE002CF9D1CD
:1002200000206860288070BDF0B5002201270326F9
:1002300007FA02F30C681C409C422BD10D79012D6A
:1002400001D0022D13D18468550006FA05FC24EA7A
:100250000C0484604C79AC4085682C4384608488AD
:100260009C43848084888B7993401C4384800568F8
:10027000530006FA03F4A54305600D79D0F800C0D9
:100280009D4045EA0C050560C568A543CC799C40B6
:100290002C43C460521C102ACAD3F0BD10B54B07C2
:1002A000DB0E9A40C90800EB8100016A0F249C40D4
:1002B000A1430162016A1143016210BD816170476F
:1002C000FEE770B506464FF496350021084600F06B
:1002D00072F92C2000F086F9002403E0304600F08B
:1002E00097F9641CAC42F9D370BD7CB50121480478
:1002F00000F008FA0121880400F004FA0121C80482
:1003000000F000FA0121480500F0FCF901248DF805
:10031000044003208DF80500102000904FF0904518
:1003200069462846FFF780FF082100916946284664
:10033000FFF77AFF4020009069462846FFF774FFD8
:10034000009469462846FFF76FFF20200090694619
:100350002846FFF769FF0224009469462846FFF704
:1003600063FF02212846FFF7A9FF04200090694699
:100370002846FFF759FF0120FFF736FF2C850A209A
:10038000FFF732FFAC617820FFF72EFFCF2000F09F
:1003900029F9002000F031F9C92000F02EF93020B1
:1003A00000F02BF9ED2000F01DF9642000F025F994
:1003B000032000F022F9122000F01FF9812000F044
:1003C0001CF9E82000F00EF9852000F016F9102045
:1003D00000F013F97A2000F010F9CB2000F002F9B8
:1003E000392000F00AF92C2000F007F9002000F075
:1003F00004F9342000F001F9032000F0FEF8F720A2
:1004000000F0F0F8202000F0F8F8EA2000F0EAF818
:10041000002000F0F2F8002000F0EFF8C02000F01B
:10042000E1F81B2000F0E9F8C12000F0DBF8002023
:1004300000F0E3F8C52000F0D5F8302000F0DDF83A
:10044000302000F0DAF8C72000F0CCF8B72000F038
:10045000D4F8362000F0C6F8082000F0CEF83A2094
:1004600000F0C0F8552000F0C8F8B12000F0BAF84C
:10047000002000F0C2F81A2000F0BFF8B62000F00B
:10048000B1F80A2000F0B9F8A22000F0B6F8F22086
:1004900000F0A8F8002000F0B0F8262000F0A2F844
:1004A000012000F0AAF8E02000F09CF80F2000F0F6
:1004B000A4F82A2000F0A1F8282000F09EF80820D7
:1004C00000F09BF80E2000F098F8082000F095F856
:1004D000542000F092F8A92000F08FF8432000F09B
:1004E0008CF80A2000F089F80F2000F086F8002030
:1004F00000F083F8002000F080F8002000F07DF884
:10050000002000F07AF8E12000F06CF8002000F004
:1005100074F8152000F071F8172000F06EF807202D
:1005200000F06BF8112000F068F8062000F065F884
:100530002B2000F062F8562000F05FF83C2000F01D
:100540005CF8052000F059F8102000F056F80F2054
:1005500000F053F83F2000F050F83F2000F04DF835
:100560000F2000F04AF82B2000F03CF8002000F0AB
:1005700044F8002000F041F8012000F03EF83F2050
:1005800000F03BF82A2000F02DF8002000F035F8AC
:10059000002000F032F8002000F02FF8EF2000F0EB
:1005A0002CF8112000F01EF87820FFF71DFE2920FE
:1005B00000F018F87CBD30B504460D462A2000F046
:1005C00011F8200A00F019F8E0B200F016F82B201C
:1005D00000F008F8280A00F010F8E8B2BDE8304052
:1005E00000F00BB830B54FF090440125258504216B
:1005F000218500F03FFAA56130BD30B54FF0904441
:10060000012525850421A16100F034FAA56130BDE2
:1006100070B505464FF09044012626850420A06160
:10062000280A00F027FAE8B200F024FAA66170BDAB
:1006300010B5044603E064682088FFF7E9FF002C4A
:10064000F9D110BDFEE7704770B50F23C2780126BF
:100650000178002A1ED0144A126802F4E062C2F542
:10066000E062120AC2F10404D3404578A5408278C2
:100670001A402A43120101F1E02181F80024007898
:1006800000F01F018E404009800000F1E020C0F81A
:10069000006170BD01F01F0086404809800000F134
:1006A000E020C0F8806170BD0CED00E00249084315
:1006B00002490860704700000000FA050CED00E0F8
:1006C0007047000010B50446082000F021FC0480AB
:1006D000002141600A4C21680A8832B1002231B100
:1006E00000231A4306D0206010BD0122F7E7012342
:1006F000F7E711464A68002AFBD1486010BD0000A8
:1007000034000020054A002903D05169014351619A
:1007100070475169814351617047000000100240E9
:10072000054A002903D0D1690143D1617047D169DD
:100730008143D16170470000001002402DE9F0476D
:100740000021DFF82083D8F8042002F00C02C64E06
:10075000002A3AD0042A3AD0082A3AD00660D8F8BB
:10076000042002F0F0021209C04CA55C026822FAD3
:1007700005F34360D8F8047007F4E0673F0A14F803
:1007800007C023FA0CF78760D8F804C00CF4605C4B
:100790004FEADC2C14F80C40E340C360D8F82CC0BE
:1007A0004FEA1C1CDFF8C4A20CF00F090AF1100A72
:1007B0003AF819905FEACC6C24D5B9F1000F21D03A
:1007C000B1FBF9FCC0F810C01DE00660C7E7066089
:1007D000C5E7D8F8041001F47011D8F8042002F429
:1007E0008032022303EB91414AB1D8F82C2002F069
:1007F0000F02521CB6FBF2F251430160AFE79C4A74
:100800005143FAE70261D8F82CC04FEA5C2C0CF097
:100810000F093AF819905FEACC6C07D5B9F1000FCF
:1008200004D0B1FBF9FCC0F814C000E04261D8F874
:1008300030C05FEACC6C01D4866100E08261D8F8F8
:1008400030C05FEA8C6C01D4C66100E0C261D8F8A8
:1008500030C05FEA4C6C01D4066200E00262D8F856
:1008600030C05FEACC5C08D58A4206D1AC4204D1E4
:100870004FEA410CC0F824C000E04362D8F830C011
:100880005FEACC4C08D58A4206D1AC4204D14FEA8B
:10089000410CC0F828C000E08362D8F830C05FEA9D
:1008A0008C5C08D58A4206D1AC4204D14FEA410C97
:1008B000C0F82CC000E0C362D8F830C05FEA4C5CDE
:1008C00008D58A4206D1AC4204D14FEA410CC0F8A7
:1008D0004CC000E0C364D8F830C05FEA0C5C08D5B7
:1008E0008A4206D1AC4204D14FEA410CC0F850C054
:1008F00000E00365D8F830C05FEA8C4C08D58A4226
:1009000006D1AC4204D14FEA410CC0F854C000E01B
:100910000365D8F830C05FEA0C4C06D58A4204D192
:10092000AC4202D14900816500E08365D8F83010FF
:100930008C074FF4004111D0D8F8303003F0030396
:10094000012B0DD0D8F8303003F00303022B09D06F
:10095000D8F83030DB439B0706D006E0836304E021
:10096000826302E0816300E08663D8F8303013F4DC
:10097000403F12D0D8F83030C3F30143012B0ED0E2
:10098000D8F83030C3F30143022B0AD0D8F8303006
:10099000C3F30143032B06D006E0C76304E0C26340
:1009A00002E0C16300E0C663D8F8303013F4402F92
:1009B00012D0D8F83030C3F38143012B0ED0D8F8D1
:1009C0003030C3F38143022B0AD0D8F83030C3F360
:1009D0008143032B06D006E0076404E0026402E0D2
:1009E000016400E00664D8F8303013F4401F12D0E0
:1009F000D8F83030C3F30153012B0ED0D8F8303083
:100A0000C3F30153022B0AD0D8F83030C3F301539B
:100A1000032B06D006E0476404E0426402E0416430
:100A200000E04664D8F8303013F4400F14D0D8F802
:100A30003030C3F38153012B10D0D8F83020C2F3EB
:100A40008152022A0CD0D8F83010C1F38151032909
:100A500000D18664BDE8F0878764FBE78264F9E72C
:100A60008164F7E70010024000127A0000000020C5
:100A700000093D0030B50021082410234FF09042BA
:100A80001385050601D5946100E014859361400645
:100A9000000E491C0829F3DB30BD70470CB500225D
:100AA000019200922248016841F4803101604FF4C4
:100AB000A043016801F4003100910199491C0191A2
:100AC000009911B901999942F3D10168890302D5BE
:100AD0000121009100E000920099012926D1154AD8
:100AE000122111604168416041684160416841F4F0
:100AF00080614160416821F47C114160416841F4AA
:100B0000E8114160016841F080710160016889016C
:100B1000FCD5416821F003014160416841F00201C8
:100B200041604168C1F381010229FAD10CBD000086
:100B300000100240002002407047000010B5164827
:100B4000016841F4700101601448016841F001013D
:100B500001604168124A114041600168114A114028
:100B60000160016821F480210160416821F4FE01E7
:100B70004160C16A21F00F01C162016B0A4A114054
:100B8000016300218160FFF789FF03494FF0006096
:100B90008039086010BD000088ED00E000100240C0
:100BA0000CC07FF8FFFFF6FECCFC00FF70B52C4EAA
:100BB0002A49304600F074F800284ED0304600F044
:100BC00005F9C4B2274B2109197004F00F025A70BD
:100BD000254D0A293BD2DFE801F03A050B12192016
:100BE000242C3037588820F00F00104358802EE016
:100BF000588820F0F00040EA0210588027E058881A
:100C000020F4706040EA0220588020E0588820F4E8
:100C1000704040EA0230588019E05888FFF751FBD5
:100C200015E000210846FFF7C6FC2C20FFF7DAFC90
:100C30000DE05888FFF746FD09E02868FFF7F8FC4B
:100C40002868FFF7E3FA02E0286800F00FF8214671
:100C50003046BDE8704000F0BDB870BD050105002C
:100C600000480040300000203400002070B50446E9
:100C7000044D04E064682846218800F0ABF8002C9D
:100C8000F8D170BD00480040002904D0016841F04F
:100C9000010101607047016821F0010101607047A6
:100CA00030B50024C1F30723012505FA01F2012B19
:100CB0000CD0022B0DD083681340090C8D40C06905
:100CC00028400BB100B10124204630BD0368134019
:100CD000F3E743681340F0E710B5C1F3072401239D
:100CE0008B40022C02D0032C02D002E0001D00E059
:100CF00008301AB101681943016010BD01689943B9
:100D0000016010BD30B597B004460D46206820F054
:100D100001002060606820F44051A86808436060CA
:100D2000206841F20C618843EA68696811432A69C6
:100D3000024311432160A06820F4407069690143B7
:100D4000A1606846FFF7FAFC1C48844201D10E9965
:100D50000FE01B48844201D10F990AE019488442F0
:100D600001D1109905E01848844201D1119900E0A1
:100D700012992068000408D52A684900B1FBF2F0F6
:100D8000B1FBF2F302FB131106E02A68B1FBF2F0AB
:100D9000B1FBF2F302FB13112A68B1EB520F00D33F
:100DA000401C2168090405D5C0F342014FF6F072DA
:100DB00010400843A08117B030BD0000003801404A
:100DC0000044004000480040004C0040808CC0F3CC
:100DD00008007047C1F3080101857047FEE7000075
:100DE00030B589B00121C804FFF78CFC01218804CB
:100DF000FFF796FC4FF44060079002208DF820002A
:100E000003208DF8210000248DF822401A4D07A9F7
:100E10002846FFF709FA07220A212846FFF73EFA7B
:100E200007220B212846FFF739FA4FF4E1300190F1
:100E300006940C2005900494039402940F4C01A98D
:100E40002046FFF75FFF01212046FFF71DFF01222B
:100E50000B492046FFF740FF27208DF800000120B6
:100E60008DF803008DF801008DF802006846FFF749
:100E7000EBFB09B030BD000000080048004800400E
:100E80000501050002E008C8121F08C1002AFAD1B6
:100E900070477047002001E001C1121F002AFBD1FA
:100EA0007047000010B5002821D0114B0022001F10
:100EB000196803E0814203D80A4649680029F9D13C
:100EC00052B11368841A9C4204D10068184410601F
:100ED000104602E0506000E0186039B102680B1A59
:100EE000934203D10B681A4402604968416010BD07
:100EF00038000020FFF7F9F9FFF772FF4FF4A06008
:100F0000FFF7D4FB20214FF09040FFF7D7F9FEE721
:100F1000F0B50B30154D20F007010024144A0FE006
:100F200003688B420BD38B4205D95E1A431847687E
:100F3000C3E9006700E04368136002C004E0021DDB
:100F400010680028ECD12046002802D1286808B19A
:100F50000020F0BD064A07481060074A121A22F026
:100F60000702C0E9002401202860D7E73C000020E8
:100F70003800002044000020408F00209C0F000813
:100F80000000002040000000840E0008DC0F000874
:100F900040000020408F0000940E00080000000078
:100FA000010203040102030406070809010002000C
:100FB0000400060008000A000C0010002000400099
:100FC00080000001000000000000000000000000A0
:0C0FD00000000000000000000000000015
:040000050800019D51
:00000001FF
